{
    "_format": "hh-sol-artifact-1",
    "contractName": "MegaChan",
    "sourceName": "contracts/MegaChan.sol",
    "abi": [
        {
            "inputs": [],
            "stateMutability": "nonpayable",
            "type": "constructor"
        },
        {
            "anonymous": false,
            "inputs": [
                {
                    "indexed": true,
                    "internalType": "address",
                    "name": "supporter",
                    "type": "address"
                },
                {
                    "indexed": false,
                    "internalType": "uint256",
                    "name": "amount",
                    "type": "uint256"
                },
                {
                    "indexed": false,
                    "internalType": "string",
                    "name": "message",
                    "type": "string"
                },
                {
                    "indexed": false,
                    "internalType": "uint256",
                    "name": "timestamp",
                    "type": "uint256"
                }
            ],
            "name": "MegaBought",
            "type": "event"
        },
        {
            "inputs": [
                {
                    "internalType": "string",
                    "name": "message",
                    "type": "string"
                }
            ],
            "name": "buyMega",
            "outputs": [],
            "stateMutability": "payable",
            "type": "function"
        },
        {
            "inputs": [
                {
                    "internalType": "uint256",
                    "name": "",
                    "type": "uint256"
                }
            ],
            "name": "contributions",
            "outputs": [
                {
                    "internalType": "address",
                    "name": "supporter",
                    "type": "address"
                },
                {
                    "internalType": "uint256",
                    "name": "amount",
                    "type": "uint256"
                },
                {
                    "internalType": "string",
                    "name": "message",
                    "type": "string"
                },
                {
                    "internalType": "uint256",
                    "name": "timestamp",
                    "type": "uint256"
                }
            ],
            "stateMutability": "view",
            "type": "function"
        },
        {
            "inputs": [],
            "name": "getContributions",
            "outputs": [
                {
                    "components": [
                        {
                            "internalType": "address",
                            "name": "supporter",
                            "type": "address"
                        },
                        {
                            "internalType": "uint256",
                            "name": "amount",
                            "type": "uint256"
                        },
                        {
                            "internalType": "string",
                            "name": "message",
                            "type": "string"
                        },
                        {
                            "internalType": "uint256",
                            "name": "timestamp",
                            "type": "uint256"
                        }
                    ],
                    "internalType": "struct MegaChan.Contribution[]",
                    "name": "",
                    "type": "tuple[]"
                }
            ],
            "stateMutability": "view",
            "type": "function"
        },
        {
            "inputs": [],
            "name": "owner",
            "outputs": [
                {
                    "internalType": "address",
                    "name": "",
                    "type": "address"
                }
            ],
            "stateMutability": "view",
            "type": "function"
        },
        {
            "inputs": [
                {
                    "internalType": "address",
                    "name": "newOwner",
                    "type": "address"
                }
            ],
            "name": "setOwner",
            "outputs": [],
            "stateMutability": "nonpayable",
            "type": "function"
        },
        {
            "inputs": [],
            "name": "withdraw",
            "outputs": [],
            "stateMutability": "nonpayable",
            "type": "function"
        }
    ],
    "bytecode": "0x6080604052348015600f57600080fd5b50336000806101000a81548173ffffffffffffffffffffffffffffffffffffffff021916908373ffffffffffffffffffffffffffffffffffffffff1602179055506111348061005f6000396000f3fe6080604052600436106100555760003560e01c806313af40351461005a5780631cee0700146100835780633ccfd60b146100c35780638da5cb5b146100da578063c98d18ed14610105578063dda0a81a14610121575b600080fd5b34801561006657600080fd5b50610081600480360381019061007c919061075a565b61014c565b005b34801561008f57600080fd5b506100aa60048036038101906100a591906107bd565b61021d565b6040516100ba9493929190610898565b60405180910390f35b3480156100cf57600080fd5b506100d8610305565b005b3480156100e657600080fd5b506100ef6103fc565b6040516100fc91906108e4565b60405180910390f35b61011f600480360381019061011a9190610a34565b610420565b005b34801561012d57600080fd5b5061013661058d565b6040516101439190610c0a565b60405180910390f35b60008054906101000a900473ffffffffffffffffffffffffffffffffffffffff1673ffffffffffffffffffffffffffffffffffffffff163373ffffffffffffffffffffffffffffffffffffffff16146101da576040517f08c379a00000000000000000000000000000000000000000000000000000000081526004016101d190610c9e565b60405180910390fd5b806000806101000a81548173ffffffffffffffffffffffffffffffffffffffff021916908373ffffffffffffffffffffffffffffffffffffffff16021790555050565b6001818154811061022d57600080fd5b90600052602060002090600402016000915090508060000160009054906101000a900473ffffffffffffffffffffffffffffffffffffffff169080600101549080600201805461027c90610ced565b80601f01602080910402602001604051908101604052809291908181526020018280546102a890610ced565b80156102f55780601f106102ca576101008083540402835291602001916102f5565b820191906000526020600020905b8154815290600101906020018083116102d857829003601f168201915b5050505050908060030154905084565b60008054906101000a900473ffffffffffffffffffffffffffffffffffffffff1673ffffffffffffffffffffffffffffffffffffffff163373ffffffffffffffffffffffffffffffffffffffff1614610393576040517f08c379a000000000000000000000000000000000000000000000000000000000815260040161038a90610d90565b60405180910390fd5b60008054906101000a900473ffffffffffffffffffffffffffffffffffffffff1673ffffffffffffffffffffffffffffffffffffffff166108fc479081150290604051600060405180830381858888f193505050501580156103f9573d6000803e3d6000fd5b50565b60008054906101000a900473ffffffffffffffffffffffffffffffffffffffff1681565b60003411610463576040517f08c379a000000000000000000000000000000000000000000000000000000000815260040161045a90610e22565b60405180910390fd5b600160405180608001604052803373ffffffffffffffffffffffffffffffffffffffff16815260200134815260200183815260200142815250908060018154018082558091505060019003906000526020600020906004020160009091909190915060008201518160000160006101000a81548173ffffffffffffffffffffffffffffffffffffffff021916908373ffffffffffffffffffffffffffffffffffffffff16021790555060208201518160010155604082015181600201908161052b9190610fee565b506060820151816003015550503373ffffffffffffffffffffffffffffffffffffffff167fbacdd030432ad09f6c216f6b45138d6d9b7c3f79188113190c062e80d0ed3d32348342604051610582939291906110c0565b60405180910390a250565b60606001805480602002602001604051908101604052809291908181526020016000905b828210156106df57838290600052602060002090600402016040518060800160405290816000820160009054906101000a900473ffffffffffffffffffffffffffffffffffffffff1673ffffffffffffffffffffffffffffffffffffffff1673ffffffffffffffffffffffffffffffffffffffff1681526020016001820154815260200160028201805461064490610ced565b80601f016020809104026020016040519081016040528092919081815260200182805461067090610ced565b80156106bd5780601f10610692576101008083540402835291602001916106bd565b820191906000526020600020905b8154815290600101906020018083116106a057829003601f168201915b50505050508152602001600382015481525050815260200190600101906105b1565b50505050905090565b6000604051905090565b600080fd5b600080fd5b600073ffffffffffffffffffffffffffffffffffffffff82169050919050565b6000610727826106fc565b9050919050565b6107378161071c565b811461074257600080fd5b50565b6000813590506107548161072e565b92915050565b6000602082840312156107705761076f6106f2565b5b600061077e84828501610745565b91505092915050565b6000819050919050565b61079a81610787565b81146107a557600080fd5b50565b6000813590506107b781610791565b92915050565b6000602082840312156107d3576107d26106f2565b5b60006107e1848285016107a8565b91505092915050565b6107f38161071c565b82525050565b61080281610787565b82525050565b600081519050919050565b600082825260208201905092915050565b60005b83811015610842578082015181840152602081019050610827565b60008484015250505050565b6000601f19601f8301169050919050565b600061086a82610808565b6108748185610813565b9350610884818560208601610824565b61088d8161084e565b840191505092915050565b60006080820190506108ad60008301876107ea565b6108ba60208301866107f9565b81810360408301526108cc818561085f565b90506108db60608301846107f9565b95945050505050565b60006020820190506108f960008301846107ea565b92915050565b600080fd5b600080fd5b7f4e487b7100000000000000000000000000000000000000000000000000000000600052604160045260246000fd5b6109418261084e565b810181811067ffffffffffffffff821117156109605761095f610909565b5b80604052505050565b60006109736106e8565b905061097f8282610938565b919050565b600067ffffffffffffffff82111561099f5761099e610909565b5b6109a88261084e565b9050602081019050919050565b82818337600083830152505050565b60006109d76109d284610984565b610969565b9050828152602081018484840111156109f3576109f2610904565b5b6109fe8482856109b5565b509392505050565b600082601f830112610a1b57610a1a6108ff565b5b8135610a2b8482602086016109c4565b91505092915050565b600060208284031215610a4a57610a496106f2565b5b600082013567ffffffffffffffff811115610a6857610a676106f7565b5b610a7484828501610a06565b91505092915050565b600081519050919050565b600082825260208201905092915050565b6000819050602082019050919050565b610ab28161071c565b82525050565b610ac181610787565b82525050565b600082825260208201905092915050565b6000610ae382610808565b610aed8185610ac7565b9350610afd818560208601610824565b610b068161084e565b840191505092915050565b6000608083016000830151610b296000860182610aa9565b506020830151610b3c6020860182610ab8565b5060408301518482036040860152610b548282610ad8565b9150506060830151610b696060860182610ab8565b508091505092915050565b6000610b808383610b11565b905092915050565b6000602082019050919050565b6000610ba082610a7d565b610baa8185610a88565b935083602082028501610bbc85610a99565b8060005b85811015610bf85784840389528151610bd98582610b74565b9450610be483610b88565b925060208a01995050600181019050610bc0565b50829750879550505050505092915050565b60006020820190508181036000830152610c248184610b95565b905092915050565b7f4f6e6c7920746865206f776e65722063616e207365742061206e6577206f776e60008201527f65722e0000000000000000000000000000000000000000000000000000000000602082015250565b6000610c88602383610813565b9150610c9382610c2c565b604082019050919050565b60006020820190508181036000830152610cb781610c7b565b9050919050565b7f4e487b7100000000000000000000000000000000000000000000000000000000600052602260045260246000fd5b60006002820490506001821680610d0557607f821691505b602082108103610d1857610d17610cbe565b5b50919050565b7f4f6e6c7920746865206f776e65722063616e2077697468647261772066756e6460008201527f732e000000000000000000000000000000000000000000000000000000000000602082015250565b6000610d7a602283610813565b9150610d8582610d1e565b604082019050919050565b60006020820190508181036000830152610da981610d6d565b9050919050565b7f416d6f756e74206d7573742062652067726561746572207468616e207a65726f60008201527f2e00000000000000000000000000000000000000000000000000000000000000602082015250565b6000610e0c602183610813565b9150610e1782610db0565b604082019050919050565b60006020820190508181036000830152610e3b81610dff565b9050919050565b60008190508160005260206000209050919050565b60006020601f8301049050919050565b600082821b905092915050565b600060088302610ea47fffffffffffffffffffffffffffffffffffffffffffffffffffffffffffffffff82610e67565b610eae8683610e67565b95508019841693508086168417925050509392505050565b6000819050919050565b6000610eeb610ee6610ee184610787565b610ec6565b610787565b9050919050565b6000819050919050565b610f0583610ed0565b610f19610f1182610ef2565b848454610e74565b825550505050565b600090565b610f2e610f21565b610f39818484610efc565b505050565b5b81811015610f5d57610f52600082610f26565b600181019050610f3f565b5050565b601f821115610fa257610f7381610e42565b610f7c84610e57565b81016020851015610f8b578190505b610f9f610f9785610e57565b830182610f3e565b50505b505050565b600082821c905092915050565b6000610fc560001984600802610fa7565b1980831691505092915050565b6000610fde8383610fb4565b9150826002028217905092915050565b610ff782610808565b67ffffffffffffffff8111156110105761100f610909565b5b61101a8254610ced565b611025828285610f61565b600060209050601f8311600181146110585760008415611046578287015190505b6110508582610fd2565b8655506110b8565b601f19841661106686610e42565b60005b8281101561108e57848901518255600182019150602085019450602081019050611069565b868310156110ab57848901516110a7601f891682610fb4565b8355505b6001600288020188555050505b505050505050565b60006060820190506110d560008301866107f9565b81810360208301526110e7818561085f565b90506110f660408301846107f9565b94935050505056fea264697066735822122053b9a8c7c5797fdd021250fb94c303228334f439da197d780d91461a23d0349f64736f6c634300081c0033",
    "linkReferences": {},
    "deployedLinkReferences": {}
}